{
  "contractName": "FootPrinter",
  "abi": [
    {
      "anonymous": false,
      "inputs": [
        {
          "indexed": false,
          "internalType": "uint256",
          "name": "footPrintId",
          "type": "uint256"
        },
        {
          "indexed": false,
          "internalType": "string",
          "name": "signature",
          "type": "string"
        }
      ],
      "name": "NewFootPrint",
      "type": "event"
    },
    {
      "constant": true,
      "inputs": [
        {
          "internalType": "uint256",
          "name": "",
          "type": "uint256"
        }
      ],
      "name": "footPrints",
      "outputs": [
        {
          "internalType": "uint256",
          "name": "footPrint",
          "type": "uint256"
        },
        {
          "internalType": "string",
          "name": "cid",
          "type": "string"
        },
        {
          "internalType": "string",
          "name": "signature",
          "type": "string"
        }
      ],
      "payable": false,
      "stateMutability": "view",
      "type": "function"
    },
    {
      "constant": true,
      "inputs": [
        {
          "internalType": "uint256",
          "name": "",
          "type": "uint256"
        }
      ],
      "name": "footPrintsToOwner",
      "outputs": [
        {
          "internalType": "address",
          "name": "",
          "type": "address"
        }
      ],
      "payable": false,
      "stateMutability": "view",
      "type": "function"
    },
    {
      "constant": true,
      "inputs": [
        {
          "internalType": "uint256",
          "name": "",
          "type": "uint256"
        }
      ],
      "name": "footPrintsToSignature",
      "outputs": [
        {
          "internalType": "string",
          "name": "",
          "type": "string"
        }
      ],
      "payable": false,
      "stateMutability": "view",
      "type": "function"
    },
    {
      "constant": false,
      "inputs": [
        {
          "internalType": "string",
          "name": "_cid",
          "type": "string"
        },
        {
          "internalType": "string",
          "name": "_signature",
          "type": "string"
        }
      ],
      "name": "createFootPrint",
      "outputs": [],
      "payable": false,
      "stateMutability": "nonpayable",
      "type": "function"
    },
    {
      "constant": true,
      "inputs": [
        {
          "internalType": "string",
          "name": "_signature",
          "type": "string"
        }
      ],
      "name": "getFootPrintsBySignature",
      "outputs": [
        {
          "internalType": "uint256[]",
          "name": "",
          "type": "uint256[]"
        }
      ],
      "payable": false,
      "stateMutability": "view",
      "type": "function"
    },
    {
      "constant": true,
      "inputs": [],
      "name": "getFootPrintsCount",
      "outputs": [
        {
          "internalType": "uint256",
          "name": "count",
          "type": "uint256"
        }
      ],
      "payable": false,
      "stateMutability": "view",
      "type": "function"
    }
  ],
  "bytecode": "0x608060405234801561001057600080fd5b50610b88806100206000396000f3fe608060405234801561001057600080fd5b50600436106100625760003560e01c80631b73addf1461006757806366f6be55146101b957806367132134146102875780638959bffd1461032e578063ba50977914610448578063f3c9fab1146104b6575b600080fd5b6101b76004803603604081101561007d57600080fd5b810190808035906020019064010000000081111561009a57600080fd5b8201836020820111156100ac57600080fd5b803590602001918460018302840111640100000000831117156100ce57600080fd5b91908080601f016020809104026020016040519081016040528093929190818152602001838380828437600081840152601f19601f8201169050808301925050505050505091929192908035906020019064010000000081111561013157600080fd5b82018360208201111561014357600080fd5b8035906020019184600183028401116401000000008311171561016557600080fd5b91908080601f016020809104026020016040519081016040528093929190818152602001838380828437600081840152601f19601f8201169050808301925050505050505091929192905050506104d4565b005b610230600480360360208110156101cf57600080fd5b81019080803590602001906401000000008111156101ec57600080fd5b8201836020820111156101fe57600080fd5b8035906020019184600183028401116401000000008311171561022057600080fd5b90919293919293905050506106c6565b6040518080602001828103825283818151815260200191508051906020019060200280838360005b83811015610273578082015181840152602081019050610258565b505050509050019250505060405180910390f35b6102b36004803603602081101561029d57600080fd5b8101908080359060200190929190505050610836565b6040518080602001828103825283818151815260200191508051906020019080838360005b838110156102f35780820151818401526020810190506102d8565b50505050905090810190601f1680156103205780820380516001836020036101000a031916815260200191505b509250505060405180910390f35b61035a6004803603602081101561034457600080fd5b81019080803590602001909291905050506108e6565b604051808481526020018060200180602001838103835285818151815260200191508051906020019080838360005b838110156103a4578082015181840152602081019050610389565b50505050905090810190601f1680156103d15780820380516001836020036101000a031916815260200191505b50838103825284818151815260200191508051906020019080838360005b8381101561040a5780820151818401526020810190506103ef565b50505050905090810190601f1680156104375780820380516001836020036101000a031916815260200191505b509550505050505060405180910390f35b6104746004803603602081101561045e57600080fd5b8101908080359060200190929190505050610a4d565b604051808273ffffffffffffffffffffffffffffffffffffffff1673ffffffffffffffffffffffffffffffffffffffff16815260200191505060405180910390f35b6104be610a80565b6040518082815260200191505060405180910390f35b6104dc610a8d565b60405180606001604052804281526020018481526020018381525090506004819080600181540180825580915050906001820390600052602060002090600302016000909192909190915060008201518160000155602082015181600101908051906020019061054d929190610aae565b50604082015181600201908051906020019061056a929190610aae565b5050505060006001600480549050039050336002600083815260200190815260200160002060006101000a81548173ffffffffffffffffffffffffffffffffffffffff021916908373ffffffffffffffffffffffffffffffffffffffff160217905550600360003373ffffffffffffffffffffffffffffffffffffffff1673ffffffffffffffffffffffffffffffffffffffff168152602001908152602001600020600081548092919060010191905055507fa9550248f64a844daff796ba5d00923c35dbce262b87c447a4785f421cf2646f81846040518083815260200180602001828103825283818151815260200191508051906020019080838360005b8381101561068557808201518184015260208101905061066a565b50505050905090810190601f1680156106b25780820380516001836020036101000a031916815260200191505b50935050505060405180910390a150505050565b6060806001848460405180838380828437808301925050509250505090815260200160405180910390205460405190808252806020026020018201604052801561071f5781602001602082028038833980820191505090505b509050600080905060008090505b60048054905081101561082a5785856040516020018083838082843780830192505050925050506040516020818303038152906040528051906020012060008083815260200190815260200160002060405160200180828054600181600116156101000203166002900480156107da5780601f106107b85761010080835404028352918201916107da565b820191906000526020600020905b8154815290600101906020018083116107c6575b505091505060405160208183030381529060405280519060200120141561081d578083838151811061080857fe5b60200260200101818152505081806001019250505b808060010191505061072d565b50819250505092915050565b60006020528060005260406000206000915090508054600181600116156101000203166002900480601f0160208091040260200160405190810160405280929190818152602001828054600181600116156101000203166002900480156108de5780601f106108b3576101008083540402835291602001916108de565b820191906000526020600020905b8154815290600101906020018083116108c157829003601f168201915b505050505081565b600481815481106108f357fe5b9060005260206000209060030201600091509050806000015490806001018054600181600116156101000203166002900480601f0160208091040260200160405190810160405280929190818152602001828054600181600116156101000203166002900480156109a55780601f1061097a576101008083540402835291602001916109a5565b820191906000526020600020905b81548152906001019060200180831161098857829003601f168201915b505050505090806002018054600181600116156101000203166002900480601f016020809104026020016040519081016040528092919081815260200182805460018160011615610100020316600290048015610a435780601f10610a1857610100808354040283529160200191610a43565b820191906000526020600020905b815481529060010190602001808311610a2657829003601f168201915b5050505050905083565b60026020528060005260406000206000915054906101000a900473ffffffffffffffffffffffffffffffffffffffff1681565b6000600480549050905090565b60405180606001604052806000815260200160608152602001606081525090565b828054600181600116156101000203166002900490600052602060002090601f016020900481019282601f10610aef57805160ff1916838001178555610b1d565b82800160010185558215610b1d579182015b82811115610b1c578251825591602001919060010190610b01565b5b509050610b2a9190610b2e565b5090565b610b5091905b80821115610b4c576000816000905550600101610b34565b5090565b9056fea265627a7a723158209a454cd88ae247591bff253e8a9ed2aa0d1a75e14dcced01e3baa4f63a2a06c264736f6c63430005100032",
  "source": "// SPDX-License-Identifier: UNLICENSED\npragma solidity >=0.5.0 <0.7.0;\n\ncontract FootPrinter {\n    event NewFootPrint(uint256 footPrintId, string signature);\n\n    struct FootPrint {\n        uint256 footPrint;\n        string cid;\n        string signature;\n    }\n\n    mapping(uint256 => string) public footPrintsToSignature;\n    mapping(string => uint256) signatureFootPrintsCount;\n\n    mapping(uint256 => address) public footPrintsToOwner;\n    mapping(address => uint256) ownerFootprintsCount;\n\n    FootPrint[] public footPrints;\n\n    function createFootPrint(\n        string memory _cid,\n        string memory _signature\n    ) public {\n        FootPrint memory newFootPrint = FootPrint(\n            now,\n            _cid,\n            _signature\n        );\n        footPrints.push(newFootPrint);\n        uint256 id = footPrints.length - 1;\n        footPrintsToOwner[id] = msg.sender;\n        ownerFootprintsCount[msg.sender]++;\n        emit NewFootPrint(id, _signature);\n    }\n\n    function getFootPrintsBySignature(string calldata _signature)\n        external\n        view\n        returns (uint256[] memory)\n    {\n        uint256[] memory result = new uint256[](signatureFootPrintsCount[_signature]);\n        uint256 counter = 0;\n        for (uint256 i = 0; i < footPrints.length; i++) {\n            if (keccak256(abi.encodePacked(footPrintsToSignature[i])) == keccak256(abi.encodePacked(_signature))) {\n                result[counter] = i;\n                counter++;\n            }\n        }\n        return result;\n    }\n\n    function getFootPrintsCount() external view returns (uint256 count) {\n        return footPrints.length;\n    }\n}\n",
  "sourcePath": "/Users/lamis/Desktop/علامة/Alamah/contracts/FootPrinter.sol",
  "compiler": {
    "name": "solc",
    "version": "0.5.16+commit.9c3226ce.Emscripten.clang"
  },
  "schemaVersion": "3.2.2",
  "updatedAt": "2021-08-31T12:35:25.043Z",
  "devdoc": {
    "methods": {}
  },
  "userdoc": {
    "methods": {}
  }
}